{
  "_format": "hh-sol-artifact-1",
  "contractName": "Semaphore",
  "sourceName": "contracts/Semaphore.sol",
  "abi": [
    {
      "inputs": [
        {
          "components": [
            {
              "internalType": "address",
              "name": "contractAddress",
              "type": "address"
            },
            {
              "internalType": "uint8",
              "name": "merkleTreeDepth",
              "type": "uint8"
            }
          ],
          "internalType": "struct ISemaphore.Verifier[]",
          "name": "_verifiers",
          "type": "tuple[]"
        }
      ],
      "stateMutability": "nonpayable",
      "type": "constructor"
    },
    {
      "anonymous": false,
      "inputs": [
        {
          "indexed": true,
          "internalType": "uint256",
          "name": "groupId",
          "type": "uint256"
        },
        {
          "indexed": true,
          "internalType": "address",
          "name": "oldAdmin",
          "type": "address"
        },
        {
          "indexed": true,
          "internalType": "address",
          "name": "newAdmin",
          "type": "address"
        }
      ],
      "name": "GroupAdminUpdated",
      "type": "event"
    },
    {
      "anonymous": false,
      "inputs": [
        {
          "indexed": true,
          "internalType": "uint256",
          "name": "groupId",
          "type": "uint256"
        },
        {
          "indexed": false,
          "internalType": "uint8",
          "name": "depth",
          "type": "uint8"
        },
        {
          "indexed": false,
          "internalType": "uint256",
          "name": "zeroValue",
          "type": "uint256"
        }
      ],
      "name": "GroupCreated",
      "type": "event"
    },
    {
      "anonymous": false,
      "inputs": [
        {
          "indexed": true,
          "internalType": "uint256",
          "name": "groupId",
          "type": "uint256"
        },
        {
          "indexed": false,
          "internalType": "uint256",
          "name": "identityCommitment",
          "type": "uint256"
        },
        {
          "indexed": false,
          "internalType": "uint256",
          "name": "root",
          "type": "uint256"
        }
      ],
      "name": "MemberAdded",
      "type": "event"
    },
    {
      "anonymous": false,
      "inputs": [
        {
          "indexed": true,
          "internalType": "uint256",
          "name": "groupId",
          "type": "uint256"
        },
        {
          "indexed": false,
          "internalType": "uint256",
          "name": "identityCommitment",
          "type": "uint256"
        },
        {
          "indexed": false,
          "internalType": "uint256",
          "name": "root",
          "type": "uint256"
        }
      ],
      "name": "MemberRemoved",
      "type": "event"
    },
    {
      "anonymous": false,
      "inputs": [
        {
          "indexed": false,
          "internalType": "uint256",
          "name": "nullifierHash",
          "type": "uint256"
        }
      ],
      "name": "NullifierHashAdded",
      "type": "event"
    },
    {
      "anonymous": false,
      "inputs": [
        {
          "indexed": true,
          "internalType": "uint256",
          "name": "groupId",
          "type": "uint256"
        },
        {
          "indexed": false,
          "internalType": "bytes32",
          "name": "signal",
          "type": "bytes32"
        }
      ],
      "name": "ProofVerified",
      "type": "event"
    },
    {
      "inputs": [
        {
          "internalType": "uint256",
          "name": "groupId",
          "type": "uint256"
        },
        {
          "internalType": "uint256",
          "name": "identityCommitment",
          "type": "uint256"
        }
      ],
      "name": "addMember",
      "outputs": [],
      "stateMutability": "nonpayable",
      "type": "function"
    },
    {
      "inputs": [
        {
          "internalType": "uint256",
          "name": "groupId",
          "type": "uint256"
        },
        {
          "internalType": "uint8",
          "name": "depth",
          "type": "uint8"
        },
        {
          "internalType": "uint256",
          "name": "zeroValue",
          "type": "uint256"
        },
        {
          "internalType": "address",
          "name": "admin",
          "type": "address"
        }
      ],
      "name": "createGroup",
      "outputs": [],
      "stateMutability": "nonpayable",
      "type": "function"
    },
    {
      "inputs": [
        {
          "internalType": "uint256",
          "name": "groupId",
          "type": "uint256"
        }
      ],
      "name": "getDepth",
      "outputs": [
        {
          "internalType": "uint8",
          "name": "",
          "type": "uint8"
        }
      ],
      "stateMutability": "view",
      "type": "function"
    },
    {
      "inputs": [
        {
          "internalType": "uint256",
          "name": "groupId",
          "type": "uint256"
        }
      ],
      "name": "getNumberOfLeaves",
      "outputs": [
        {
          "internalType": "uint256",
          "name": "",
          "type": "uint256"
        }
      ],
      "stateMutability": "view",
      "type": "function"
    },
    {
      "inputs": [
        {
          "internalType": "uint256",
          "name": "groupId",
          "type": "uint256"
        }
      ],
      "name": "getRoot",
      "outputs": [
        {
          "internalType": "uint256",
          "name": "",
          "type": "uint256"
        }
      ],
      "stateMutability": "view",
      "type": "function"
    },
    {
      "inputs": [
        {
          "internalType": "uint256",
          "name": "",
          "type": "uint256"
        }
      ],
      "name": "groupAdmins",
      "outputs": [
        {
          "internalType": "address",
          "name": "",
          "type": "address"
        }
      ],
      "stateMutability": "view",
      "type": "function"
    },
    {
      "inputs": [
        {
          "internalType": "uint256",
          "name": "groupId",
          "type": "uint256"
        },
        {
          "internalType": "uint256",
          "name": "identityCommitment",
          "type": "uint256"
        },
        {
          "internalType": "uint256[]",
          "name": "proofSiblings",
          "type": "uint256[]"
        },
        {
          "internalType": "uint8[]",
          "name": "proofPathIndices",
          "type": "uint8[]"
        }
      ],
      "name": "removeMember",
      "outputs": [],
      "stateMutability": "nonpayable",
      "type": "function"
    },
    {
      "inputs": [
        {
          "internalType": "uint256",
          "name": "groupId",
          "type": "uint256"
        },
        {
          "internalType": "address",
          "name": "newAdmin",
          "type": "address"
        }
      ],
      "name": "updateGroupAdmin",
      "outputs": [],
      "stateMutability": "nonpayable",
      "type": "function"
    },
    {
      "inputs": [
        {
          "internalType": "uint8",
          "name": "",
          "type": "uint8"
        }
      ],
      "name": "verifiers",
      "outputs": [
        {
          "internalType": "contract IVerifier",
          "name": "",
          "type": "address"
        }
      ],
      "stateMutability": "view",
      "type": "function"
    },
    {
      "inputs": [
        {
          "internalType": "uint256",
          "name": "groupId",
          "type": "uint256"
        },
        {
          "internalType": "bytes32",
          "name": "signal",
          "type": "bytes32"
        },
        {
          "internalType": "uint256",
          "name": "nullifierHash",
          "type": "uint256"
        },
        {
          "internalType": "uint256",
          "name": "externalNullifier",
          "type": "uint256"
        },
        {
          "internalType": "uint256[8]",
          "name": "proof",
          "type": "uint256[8]"
        }
      ],
      "name": "verifyProof",
      "outputs": [],
      "stateMutability": "nonpayable",
      "type": "function"
    }
  ],
  "bytecode": "0x60806040523480156200001157600080fd5b506040516200222738038062002227833981810160405281019062000037919062000270565b60005b81518160ff1610156200014557818160ff168151811062000084577f4e487b7100000000000000000000000000000000000000000000000000000000600052603260045260246000fd5b60200260200101516000015160026000848460ff1681518110620000d1577f4e487b7100000000000000000000000000000000000000000000000000000000600052603260045260246000fd5b60200260200101516020015160ff1660ff16815260200190815260200160002060006101000a81548173ffffffffffffffffffffffffffffffffffffffff021916908373ffffffffffffffffffffffffffffffffffffffff16021790555080806200013c9062000384565b9150506200003a565b505062000456565b6000620001646200015e84620002de565b620002b5565b905080838252602082019050828560408602820111156200018457600080fd5b60005b85811015620001b857816200019d888262000206565b84526020840193506040830192505060018101905062000187565b5050509392505050565b600081519050620001d38162000422565b92915050565b600082601f830112620001eb57600080fd5b8151620001fd8482602086016200014d565b91505092915050565b6000604082840312156200021957600080fd5b620002256040620002b5565b905060006200023784828501620001c2565b60008301525060206200024d8482850162000259565b60208301525092915050565b6000815190506200026a816200043c565b92915050565b6000602082840312156200028357600080fd5b600082015167ffffffffffffffff8111156200029e57600080fd5b620002ac84828501620001d9565b91505092915050565b6000620002c1620002d4565b9050620002cf82826200034e565b919050565b6000604051905090565b600067ffffffffffffffff821115620002fc57620002fb620003e2565b5b602082029050602081019050919050565b60006200031a8262000321565b9050919050565b600073ffffffffffffffffffffffffffffffffffffffff82169050919050565b600060ff82169050919050565b620003598262000411565b810181811067ffffffffffffffff821117156200037b576200037a620003e2565b5b80604052505050565b6000620003918262000341565b915060ff821415620003a857620003a7620003b3565b5b600182019050919050565b7f4e487b7100000000000000000000000000000000000000000000000000000000600052601160045260246000fd5b7f4e487b7100000000000000000000000000000000000000000000000000000000600052604160045260246000fd5b6000601f19601f8301169050919050565b6200042d816200030d565b81146200043957600080fd5b50565b620004478162000341565b81146200045357600080fd5b50565b611dc180620004666000396000f3fe608060405234801561001057600080fd5b506004361061009e5760003560e01c80636673e849116100665780636673e8491461014357806375e618c91461015f5780639b24b3b01461018f578063ac28eacd146101bf578063b9c78c2b146101ef5761009e565b80631783efc3146100a35780631c57d8ca146100bf5780632d69be98146100db57806343989f851461010b578063568ee82614610127575b600080fd5b6100bd60048036038101906100b89190611181565b61021f565b005b6100d960048036038101906100d49190611258565b6102d7565b005b6100f560048036038101906100f091906112bb565b610441565b604051610102919061176f565b60405180910390f35b610125600480360381019061012091906111bd565b610474565b005b610141600480360381019061013c91906110cd565b610534565b005b61015d60048036038101906101589190611109565b610696565b005b610179600480360381019061017491906110a4565b61078e565b6040516101869190611965565b60405180910390f35b6101a960048036038101906101a491906110a4565b6107bb565b6040516101b69190611921565b60405180910390f35b6101d960048036038101906101d491906110a4565b6107db565b6040516101e691906116f2565b60405180910390f35b610209600480360381019061020491906110a4565b61080e565b6040516102169190611921565b60405180910390f35b8161022861082e565b73ffffffffffffffffffffffffffffffffffffffff166003600083815260200190815260200160002060009054906101000a900473ffffffffffffffffffffffffffffffffffffffff1673ffffffffffffffffffffffffffffffffffffffff16146102c8576040517f08c379a00000000000000000000000000000000000000000000000000000000081526004016102bf9061180a565b60405180910390fd5b6102d28383610836565b505050565b82600073ffffffffffffffffffffffffffffffffffffffff16600260008360ff1660ff16815260200190815260200160002060009054906101000a900473ffffffffffffffffffffffffffffffffffffffff1673ffffffffffffffffffffffffffffffffffffffff161415610381576040517f08c379a00000000000000000000000000000000000000000000000000000000081526004016103789061182a565b60405180910390fd5b61038c85858561094e565b816003600087815260200190815260200160002060006101000a81548173ffffffffffffffffffffffffffffffffffffffff021916908373ffffffffffffffffffffffffffffffffffffffff1602179055508173ffffffffffffffffffffffffffffffffffffffff16600073ffffffffffffffffffffffffffffffffffffffff16867f0ba83579a0e79193ef649b9f5a8759d35af086ba62a3e207b52e4a8ae30d49e360405160405180910390a45050505050565b60026020528060005260406000206000915054906101000a900473ffffffffffffffffffffffffffffffffffffffff1681565b8561047d61082e565b73ffffffffffffffffffffffffffffffffffffffff166003600083815260200190815260200160002060009054906101000a900473ffffffffffffffffffffffffffffffffffffffff1673ffffffffffffffffffffffffffffffffffffffff161461051d576040517f08c379a00000000000000000000000000000000000000000000000000000000081526004016105149061180a565b60405180910390fd5b61052b878787878787610abc565b50505050505050565b8161053d61082e565b73ffffffffffffffffffffffffffffffffffffffff166003600083815260200190815260200160002060009054906101000a900473ffffffffffffffffffffffffffffffffffffffff1673ffffffffffffffffffffffffffffffffffffffff16146105dd576040517f08c379a00000000000000000000000000000000000000000000000000000000081526004016105d49061180a565b60405180910390fd5b816003600085815260200190815260200160002060006101000a81548173ffffffffffffffffffffffffffffffffffffffff021916908373ffffffffffffffffffffffffffffffffffffffff1602179055508173ffffffffffffffffffffffffffffffffffffffff1661064e61082e565b73ffffffffffffffffffffffffffffffffffffffff16847f0ba83579a0e79193ef649b9f5a8759d35af086ba62a3e207b52e4a8ae30d49e360405160405180910390a4505050565b60006106a1866107bb565b905060006106ae8761078e565b905060008160ff1614156106f7576040517f08c379a00000000000000000000000000000000000000000000000000000000081526004016106ee906117ca565b60405180910390fd5b6000600260008360ff1660ff16815260200190815260200160002060009054906101000a900473ffffffffffffffffffffffffffffffffffffffff169050610743878488888886610be0565b61074c86610f39565b877f102229041138505f4cecdadc8e3ac1cd92c55870c17371050fc00bdb088898018860405161077c9190611754565b60405180910390a25050505050505050565b60006001600083815260200190815260200160002060000160009054906101000a900460ff169050919050565b600060016000838152602001908152602001600020600101549050919050565b60036020528060005260406000206000915054906101000a900473ffffffffffffffffffffffffffffffffffffffff1681565b600060016000838152602001908152602001600020600201549050919050565b600033905090565b60006108418361078e565b60ff161415610885576040517f08c379a000000000000000000000000000000000000000000000000000000000815260040161087c906117ea565b60405180910390fd5b6001600083815260200190815260200160002073__$0c6eb7207c37accf1552a1c47686411ac0$__63168703fa9091836040518363ffffffff1660e01b81526004016108d292919061186a565b60006040518083038186803b1580156108ea57600080fd5b505af41580156108fe573d6000803e3d6000fd5b50505050600061090d836107bb565b9050827f03fd27265b7dd1f55558bedc22a58fa3b10afb1be776e614bd5a7ba7b9499406838360405161094192919061193c565b60405180910390a2505050565b7f30644e72e131a029b85045b68181585d2833e84879b9709143e1f593f000000183106109b0576040517f08c379a00000000000000000000000000000000000000000000000000000000081526004016109a79061184a565b60405180910390fd5b60006109bb8461078e565b60ff16146109fe576040517f08c379a00000000000000000000000000000000000000000000000000000000081526004016109f5906117aa565b60405180910390fd5b6001600084815260200190815260200160002073__$0c6eb7207c37accf1552a1c47686411ac0$__63b4bdd117909184846040518463ffffffff1660e01b8152600401610a4d939291906118ea565b60006040518083038186803b158015610a6557600080fd5b505af4158015610a79573d6000803e3d6000fd5b50505050827fc3082aa494e9088c2c9f0fb62a0b6bd46e6699acb94cfba35be29b95a93f68c88383604051610aaf929190611980565b60405180910390a2505050565b6000610ac78761078e565b60ff161415610b0b576040517f08c379a0000000000000000000000000000000000000000000000000000000008152600401610b02906117ea565b60405180910390fd5b6001600087815260200190815260200160002073__$0c6eb7207c37accf1552a1c47686411ac0$__630629596f909187878787876040518763ffffffff1660e01b8152600401610b6096959493929190611893565b60006040518083038186803b158015610b7857600080fd5b505af4158015610b8c573d6000803e3d6000fd5b505050506000610b9b876107bb565b9050867fe270325ded177064d7bda473e6519ef40a291058c41286f71a6e4872f1e9ab5c8783604051610bcf92919061193c565b60405180910390a250505050505050565b60008085815260200190815260200160002060009054906101000a900460ff1615610c40576040517f08c379a0000000000000000000000000000000000000000000000000000000008152600401610c379061178a565b60405180910390fd5b6000610c4b87610f67565b90508173ffffffffffffffffffffffffffffffffffffffff16635fe8c13b604051806040016040528086600060088110610cae577f4e487b7100000000000000000000000000000000000000000000000000000000600052603260045260246000fd5b6020020135815260200186600160088110610cf2577f4e487b7100000000000000000000000000000000000000000000000000000000600052603260045260246000fd5b60200201358152506040518060400160405280604051806040016040528089600260088110610d4a577f4e487b7100000000000000000000000000000000000000000000000000000000600052603260045260246000fd5b6020020135815260200189600360088110610d8e577f4e487b7100000000000000000000000000000000000000000000000000000000600052603260045260246000fd5b60200201358152508152602001604051806040016040528089600460088110610de0577f4e487b7100000000000000000000000000000000000000000000000000000000600052603260045260246000fd5b6020020135815260200189600560088110610e24577f4e487b7100000000000000000000000000000000000000000000000000000000600052603260045260246000fd5b6020020135815250815250604051806040016040528088600660088110610e74577f4e487b7100000000000000000000000000000000000000000000000000000000600052603260045260246000fd5b6020020135815260200188600760088110610eb8577f4e487b7100000000000000000000000000000000000000000000000000000000600052603260045260246000fd5b602002013581525060405180608001604052808c81526020018b81526020018781526020018a8152506040518563ffffffff1660e01b8152600401610f00949392919061170d565b60006040518083038186803b158015610f1857600080fd5b505afa158015610f2c573d6000803e3d6000fd5b5050505050505050505050565b600160008083815260200190815260200160002060006101000a81548160ff02191690831515021790555050565b6000600882604051602001610f7c91906116d7565b6040516020818303038152906040528051906020012060001c901c9050919050565b600081359050610fad81611d2f565b92915050565b600081905082602060080282011115610fcb57600080fd5b92915050565b60008083601f840112610fe357600080fd5b8235905067ffffffffffffffff811115610ffc57600080fd5b60208301915083602082028301111561101457600080fd5b9250929050565b60008083601f84011261102d57600080fd5b8235905067ffffffffffffffff81111561104657600080fd5b60208301915083602082028301111561105e57600080fd5b9250929050565b60008135905061107481611d46565b92915050565b60008135905061108981611d5d565b92915050565b60008135905061109e81611d74565b92915050565b6000602082840312156110b657600080fd5b60006110c48482850161107a565b91505092915050565b600080604083850312156110e057600080fd5b60006110ee8582860161107a565b92505060206110ff85828601610f9e565b9150509250929050565b6000806000806000610180868803121561112257600080fd5b60006111308882890161107a565b955050602061114188828901611065565b94505060406111528882890161107a565b93505060606111638882890161107a565b925050608061117488828901610fb3565b9150509295509295909350565b6000806040838503121561119457600080fd5b60006111a28582860161107a565b92505060206111b38582860161107a565b9150509250929050565b600080600080600080608087890312156111d657600080fd5b60006111e489828a0161107a565b96505060206111f589828a0161107a565b955050604087013567ffffffffffffffff81111561121257600080fd5b61121e89828a01610fd1565b9450945050606087013567ffffffffffffffff81111561123d57600080fd5b61124989828a0161101b565b92509250509295509295509295565b6000806000806080858703121561126e57600080fd5b600061127c8782880161107a565b945050602061128d8782880161108f565b935050604061129e8782880161107a565b92505060606112af87828801610f9e565b91505092959194509250565b6000602082840312156112cd57600080fd5b60006112db8482850161108f565b91505092915050565b60006112f08383611392565b60408301905092915050565b6000611308838361167d565b60208301905092915050565b600061132083836116c8565b60208301905092915050565b61133581611a9c565b82525050565b611344816119d1565b61134e8184611a26565b9250611359826119a9565b8060005b8381101561138a57815161137187826112e4565b965061137c836119f2565b92505060018101905061135d565b505050505050565b61139b816119dc565b6113a58184611a31565b92506113b0826119b3565b8060005b838110156113e15781516113c887826112fc565b96506113d3836119ff565b9250506001810190506113b4565b505050505050565b6113f2816119dc565b6113fc8184611a3c565b9250611407826119b3565b8060005b8381101561143857815161141f87826112fc565b965061142a836119ff565b92505060018101905061140b565b505050505050565b611449816119e7565b6114538184611a47565b925061145e826119bd565b8060005b8381101561148f57815161147687826112fc565b965061148183611a0c565b925050600181019050611462565b505050505050565b60006114a38385611a52565b93507f07ffffffffffffffffffffffffffffffffffffffffffffffffffffffffffffff8311156114d257600080fd5b6020830292506114e3838584611b13565b82840190509392505050565b60006114fb8385611a63565b9350611506826119c7565b8060005b8581101561153f5761151c8284611a85565b6115268882611314565b975061153183611a19565b92505060018101905061150a565b5085925050509392505050565b61155581611aae565b82525050565b61156c61156782611aae565b611b22565b82525050565b61157b81611aef565b82525050565b600061158e603683611a74565b915061159982611b2c565b604082019050919050565b60006115b1602583611a74565b91506115bc82611b7b565b604082019050919050565b60006115d4601f83611a74565b91506115df82611bca565b602082019050919050565b60006115f7602583611a74565b915061160282611bf3565b604082019050919050565b600061161a602883611a74565b915061162582611c42565b604082019050919050565b600061163d602683611a74565b915061164882611c91565b604082019050919050565b6000611660603683611a74565b915061166b82611ce0565b604082019050919050565b8082525050565b61168681611ad8565b82525050565b61169581611ad8565b82525050565b6116a481611ad8565b82525050565b6116b381611ae2565b82525050565b6116c281611ae2565b82525050565b6116d181611ae2565b82525050565b60006116e3828461155b565b60208201915081905092915050565b6000602082019050611707600083018461132c565b92915050565b60006101808201905061172360008301876113e9565b611730604083018661133b565b61173d60c08301856113e9565b61174b610100830184611440565b95945050505050565b6000602082019050611769600083018461154c565b92915050565b60006020820190506117846000830184611572565b92915050565b600060208201905081810360008301526117a381611581565b9050919050565b600060208201905081810360008301526117c3816115a4565b9050919050565b600060208201905081810360008301526117e3816115c7565b9050919050565b60006020820190508181036000830152611803816115ea565b9050919050565b600060208201905081810360008301526118238161160d565b9050919050565b6000602082019050818103600083015261184381611630565b9050919050565b6000602082019050818103600083015261186381611653565b9050919050565b600060408201905061187f6000830185611676565b61188c602083018461169b565b9392505050565b60006080820190506118a86000830189611676565b6118b5602083018861169b565b81810360408301526118c8818688611497565b905081810360608301526118dd8184866114ef565b9050979650505050505050565b60006060820190506118ff6000830186611676565b61190c60208301856116b9565b611919604083018461169b565b949350505050565b6000602082019050611936600083018461168c565b92915050565b6000604082019050611951600083018561168c565b61195e602083018461168c565b9392505050565b600060208201905061197a60008301846116aa565b92915050565b600060408201905061199560008301856116aa565b6119a2602083018461168c565b9392505050565b6000819050919050565b6000819050919050565b6000819050919050565b6000819050919050565b600060029050919050565b600060029050919050565b600060049050919050565b6000602082019050919050565b6000602082019050919050565b6000602082019050919050565b6000602082019050919050565b600081905092915050565b600081905092915050565b600081905092915050565b600081905092915050565b600082825260208201905092915050565b600082825260208201905092915050565b600082825260208201905092915050565b6000611a94602084018461108f565b905092915050565b6000611aa782611ab8565b9050919050565b6000819050919050565b600073ffffffffffffffffffffffffffffffffffffffff82169050919050565b6000819050919050565b600060ff82169050919050565b6000611afa82611b01565b9050919050565b6000611b0c82611ab8565b9050919050565b82818337600083830152505050565b6000819050919050565b7f53656d6170686f7265436f72653a20796f752063616e6e6f742075736520746860008201527f652073616d65206e756c6c696669657220747769636500000000000000000000602082015250565b7f53656d6170686f726547726f7570733a2067726f757020616c7265616479206560008201527f7869737473000000000000000000000000000000000000000000000000000000602082015250565b7f53656d6170686f72653a2067726f757020646f6573206e6f7420657869737400600082015250565b7f53656d6170686f726547726f7570733a2067726f757020646f6573206e6f742060008201527f6578697374000000000000000000000000000000000000000000000000000000602082015250565b7f53656d6170686f72653a2063616c6c6572206973206e6f74207468652067726f60008201527f75702061646d696e000000000000000000000000000000000000000000000000602082015250565b7f53656d6170686f72653a2074726565206465707468206973206e6f742073757060008201527f706f727465640000000000000000000000000000000000000000000000000000602082015250565b7f53656d6170686f726547726f7570733a2067726f7570206964206d757374206260008201527f65203c20534e41524b5f5343414c41525f4649454c4400000000000000000000602082015250565b611d3881611a9c565b8114611d4357600080fd5b50565b611d4f81611aae565b8114611d5a57600080fd5b50565b611d6681611ad8565b8114611d7157600080fd5b50565b611d7d81611ae2565b8114611d8857600080fd5b5056fea2646970667358221220245b4dce324afb5515d0abd93a8be1d120cb3c7c301ac3dc485e5f1fe44b7a1164736f6c63430008040033",
  "linkReferences": {
    "@zk-kit/incremental-merkle-tree.sol/IncrementalBinaryTree.sol": {
      "IncrementalBinaryTree": [
        {
          "length": 20,
          "start": 3328
        },
        {
          "length": 20,
          "start": 3705
        },
        {
          "length": 20,
          "start": 3974
        }
      ]
    }
  },
  "deployedLinkReferences": {
    "@zk-kit/incremental-merkle-tree.sol/IncrementalBinaryTree.sol": {
      "IncrementalBinaryTree": [
        {
          "length": 20,
          "start": 2202
        },
        {
          "length": 20,
          "start": 2579
        },
        {
          "length": 20,
          "start": 2848
        }
      ]
    }
  }
}