{
  "_format": "hh-sol-artifact-1",
  "contractName": "SFRouter",
  "sourceName": "contracts/SFRouter.sol",
  "abi": [
    {
      "inputs": [
        {
          "internalType": "contract ISuperfluid",
          "name": "host",
          "type": "address"
        },
        {
          "internalType": "address",
          "name": "_owner",
          "type": "address"
        },
        {
          "internalType": "contract ISemaphore",
          "name": "_semaContract",
          "type": "address"
        }
      ],
      "stateMutability": "nonpayable",
      "type": "constructor"
    },
    {
      "anonymous": false,
      "inputs": [
        {
          "indexed": false,
          "internalType": "uint256",
          "name": "roomId",
          "type": "uint256"
        },
        {
          "indexed": false,
          "internalType": "uint256",
          "name": "rating",
          "type": "uint256"
        },
        {
          "indexed": false,
          "internalType": "uint256",
          "name": "numVotes",
          "type": "uint256"
        }
      ],
      "name": "RoomClose",
      "type": "event"
    },
    {
      "inputs": [
        {
          "internalType": "address",
          "name": "_account",
          "type": "address"
        }
      ],
      "name": "addAccount",
      "outputs": [],
      "stateMutability": "nonpayable",
      "type": "function"
    },
    {
      "inputs": [
        {
          "internalType": "address[]",
          "name": "_accounts",
          "type": "address[]"
        }
      ],
      "name": "addAccounts",
      "outputs": [],
      "stateMutability": "nonpayable",
      "type": "function"
    },
    {
      "inputs": [],
      "name": "cfaV1",
      "outputs": [
        {
          "internalType": "contract ISuperfluid",
          "name": "host",
          "type": "address"
        },
        {
          "internalType": "contract IConstantFlowAgreementV1",
          "name": "cfa",
          "type": "address"
        }
      ],
      "stateMutability": "view",
      "type": "function"
    },
    {
      "inputs": [
        {
          "internalType": "uint256",
          "name": "roomId",
          "type": "uint256"
        },
        {
          "internalType": "contract ISuperfluidToken",
          "name": "token",
          "type": "address"
        },
        {
          "internalType": "address",
          "name": "receiver",
          "type": "address"
        },
        {
          "internalType": "uint256",
          "name": "rating",
          "type": "uint256"
        },
        {
          "internalType": "uint256",
          "name": "numVotes",
          "type": "uint256"
        }
      ],
      "name": "closeRoom",
      "outputs": [],
      "stateMutability": "nonpayable",
      "type": "function"
    },
    {
      "inputs": [],
      "name": "createRoom",
      "outputs": [
        {
          "internalType": "uint256",
          "name": "",
          "type": "uint256"
        }
      ],
      "stateMutability": "nonpayable",
      "type": "function"
    },
    {
      "inputs": [
        {
          "internalType": "address",
          "name": "",
          "type": "address"
        }
      ],
      "name": "daoMembers",
      "outputs": [
        {
          "internalType": "bool",
          "name": "",
          "type": "bool"
        }
      ],
      "stateMutability": "view",
      "type": "function"
    },
    {
      "inputs": [],
      "name": "owner",
      "outputs": [
        {
          "internalType": "address",
          "name": "",
          "type": "address"
        }
      ],
      "stateMutability": "view",
      "type": "function"
    },
    {
      "inputs": [
        {
          "internalType": "address",
          "name": "_account",
          "type": "address"
        }
      ],
      "name": "removeAccount",
      "outputs": [],
      "stateMutability": "nonpayable",
      "type": "function"
    },
    {
      "inputs": [],
      "name": "roomNumber",
      "outputs": [
        {
          "internalType": "uint256",
          "name": "",
          "type": "uint256"
        }
      ],
      "stateMutability": "view",
      "type": "function"
    },
    {
      "inputs": [
        {
          "internalType": "uint256",
          "name": "",
          "type": "uint256"
        }
      ],
      "name": "roomStatus",
      "outputs": [
        {
          "internalType": "bool",
          "name": "",
          "type": "bool"
        }
      ],
      "stateMutability": "view",
      "type": "function"
    },
    {
      "inputs": [],
      "name": "semaContract",
      "outputs": [
        {
          "internalType": "contract ISemaphore",
          "name": "",
          "type": "address"
        }
      ],
      "stateMutability": "view",
      "type": "function"
    },
    {
      "inputs": [
        {
          "internalType": "contract ISuperToken",
          "name": "token",
          "type": "address"
        },
        {
          "internalType": "uint256",
          "name": "amount",
          "type": "uint256"
        }
      ],
      "name": "sendLumpSumToContract",
      "outputs": [],
      "stateMutability": "nonpayable",
      "type": "function"
    },
    {
      "inputs": [
        {
          "internalType": "uint256",
          "name": "groupdId",
          "type": "uint256"
        },
        {
          "internalType": "bytes32",
          "name": "signal",
          "type": "bytes32"
        },
        {
          "internalType": "uint256",
          "name": "nullifierHash",
          "type": "uint256"
        },
        {
          "internalType": "uint256",
          "name": "externalNullifier",
          "type": "uint256"
        },
        {
          "internalType": "uint256[8]",
          "name": "proof",
          "type": "uint256[8]"
        },
        {
          "internalType": "uint256",
          "name": "roomId",
          "type": "uint256"
        },
        {
          "internalType": "contract ISuperfluidToken",
          "name": "token",
          "type": "address"
        }
      ],
      "name": "sendTransaction",
      "outputs": [],
      "stateMutability": "nonpayable",
      "type": "function"
    },
    {
      "inputs": [
        {
          "internalType": "contract ISuperToken",
          "name": "token",
          "type": "address"
        },
        {
          "internalType": "uint256",
          "name": "amount",
          "type": "uint256"
        }
      ],
      "name": "withdrawFunds",
      "outputs": [],
      "stateMutability": "nonpayable",
      "type": "function"
    }
  ],
  "bytecode": "0x608060405260006001553480156200001657600080fd5b50604051620024143803806200241483398181016040528101906200003c91906200048b565b600073ffffffffffffffffffffffffffffffffffffffff168373ffffffffffffffffffffffffffffffffffffffff16036200007c576200007b620004e7565b5b816000806101000a81548173ffffffffffffffffffffffffffffffffffffffff021916908373ffffffffffffffffffffffffffffffffffffffff16021790555080600260006101000a81548173ffffffffffffffffffffffffffffffffffffffff021916908373ffffffffffffffffffffffffffffffffffffffff1602179055506200014d604051806060016040528060248152602001620023f06024913960008054906101000a900473ffffffffffffffffffffffffffffffffffffffff16620002c860201b62000b101760201c565b60405180604001604052808473ffffffffffffffffffffffffffffffffffffffff1681526020018473ffffffffffffffffffffffffffffffffffffffff1663b6d200de7fa9214cc96615e0085d3bb077758db69497dc2dce3b2b1e97bc93c3d18d83efd36040518263ffffffff1660e01b8152600401620001cf919062000531565b602060405180830381865afa158015620001ed573d6000803e3d6000fd5b505050506040513d601f19601f8201168201806040525081019062000213919062000593565b73ffffffffffffffffffffffffffffffffffffffff16815250600360008201518160000160006101000a81548173ffffffffffffffffffffffffffffffffffffffff021916908373ffffffffffffffffffffffffffffffffffffffff16021790555060208201518160010160006101000a81548173ffffffffffffffffffffffffffffffffffffffff021916908373ffffffffffffffffffffffffffffffffffffffff160217905550905050505050620006ae565b6200036a8282604051602401620002e19291906200067a565b6040516020818303038152906040527f319af333000000000000000000000000000000000000000000000000000000007bffffffffffffffffffffffffffffffffffffffffffffffffffffffff19166020820180517bffffffffffffffffffffffffffffffffffffffffffffffffffffffff83818316178352505050506200036e60201b60201c565b5050565b60008151905060006a636f6e736f6c652e6c6f679050602083016000808483855afa5050505050565b600080fd5b600073ffffffffffffffffffffffffffffffffffffffff82169050919050565b6000620003c9826200039c565b9050919050565b6000620003dd82620003bc565b9050919050565b620003ef81620003d0565b8114620003fb57600080fd5b50565b6000815190506200040f81620003e4565b92915050565b6200042081620003bc565b81146200042c57600080fd5b50565b600081519050620004408162000415565b92915050565b60006200045382620003bc565b9050919050565b620004658162000446565b81146200047157600080fd5b50565b60008151905062000485816200045a565b92915050565b600080600060608486031215620004a757620004a662000397565b5b6000620004b786828701620003fe565b9350506020620004ca868287016200042f565b9250506040620004dd8682870162000474565b9150509250925092565b7f4e487b7100000000000000000000000000000000000000000000000000000000600052600160045260246000fd5b6000819050919050565b6200052b8162000516565b82525050565b600060208201905062000548600083018462000520565b92915050565b60006200055b82620003bc565b9050919050565b6200056d816200054e565b81146200057957600080fd5b50565b6000815190506200058d8162000562565b92915050565b600060208284031215620005ac57620005ab62000397565b5b6000620005bc848285016200057c565b91505092915050565b600081519050919050565b600082825260208201905092915050565b60005b8381101562000601578082015181840152602081019050620005e4565b8381111562000611576000848401525b50505050565b6000601f19601f8301169050919050565b60006200063582620005c5565b620006418185620005d0565b935062000653818560208601620005e1565b6200065e8162000617565b840191505092915050565b6200067481620003bc565b82525050565b6000604082019050818103600083015262000696818562000628565b9050620006a7602083018462000669565b9392505050565b611d3280620006be6000396000f3fe608060405234801561001057600080fd5b50600436106100ea5760003560e01c8063ac71abde1161008c578063d23b96a111610066578063d23b96a114610221578063d3112b2e1461023f578063db93ea691461025e578063e89b0e1e1461028e576100ea565b8063ac71abde146101cd578063c1075329146101e9578063c4740a9514610205576100ea565b80638a8deed7116100c85780638a8deed7146101455780638da5cb5b14610163578063959068ea14610181578063aa829041146101b1576100ea565b806326ff92e4146100ef5780633be272aa1461010b57806368ace07414610129575b600080fd5b610109600480360381019061010491906110fc565b6102aa565b005b610113610418565b604051610120919061114b565b60405180910390f35b610143600480360381019061013e9190611201565b610468565b005b61014d610555565b60405161015a9190611305565b60405180910390f35b61016b61057b565b604051610178919061132f565b60405180910390f35b61019b60048036038101906101969190611376565b61059f565b6040516101a891906113be565b60405180910390f35b6101cb60048036038101906101c691906113d9565b6105bf565b005b6101e760048036038101906101e291906115a8565b610637565b005b61020360048036038101906101fe91906110fc565b61075a565b005b61021f600480360381019061021a9190611376565b6108c6565b005b6102296109af565b604051610236919061114b565b60405180910390f35b6102476109b5565b604051610255929190611633565b60405180910390f35b6102786004803603810190610273919061165c565b610a07565b60405161028591906113be565b60405180910390f35b6102a860048036038101906102a39190611376565b610a27565b005b60008054906101000a900473ffffffffffffffffffffffffffffffffffffffff1673ffffffffffffffffffffffffffffffffffffffff163373ffffffffffffffffffffffffffffffffffffffff161480610354575060011515600660003373ffffffffffffffffffffffffffffffffffffffff1673ffffffffffffffffffffffffffffffffffffffff16815260200190815260200160002060009054906101000a900460ff161515145b610393576040517f08c379a000000000000000000000000000000000000000000000000000000000815260040161038a906116e6565b60405180910390fd5b8173ffffffffffffffffffffffffffffffffffffffff166323b872dd3330846040518463ffffffff1660e01b81526004016103d093929190611706565b6020604051808303816000875af11580156103ef573d6000803e3d6000fd5b505050506040513d601f19601f820116820180604052508101906104139190611769565b505050565b60006001600081548092919061042d906117c5565b9190505550600160056000600154815260200190815260200160002060006101000a81548160ff021916908315150217905550600154905090565b600260009054906101000a900473ffffffffffffffffffffffffffffffffffffffff1673ffffffffffffffffffffffffffffffffffffffff16636673e84988888888886040518663ffffffff1660e01b81526004016104cb95949392919061183c565b600060405180830381600087803b1580156104e557600080fd5b505af11580156104f9573d6000803e3d6000fd5b50505050600115156005600084815260200190815260200160002060009054906101000a900460ff1615151461052e57600080fd5b81841461053a57600080fd5b61054c813366891087b8a17ca8610bac565b50505050505050565b600260009054906101000a900473ffffffffffffffffffffffffffffffffffffffff1681565b60008054906101000a900473ffffffffffffffffffffffffffffffffffffffff1681565b60066020528060005260406000206000915054906101000a900460ff1681565b60006005600087815260200190815260200160002060006101000a81548160ff0219169083151502179055506105f58484610bc9565b7fc41f703d5ca3331b7ef2f4b4cf8ddca5178e910a8c647654f7d1223f6482f8dd85838360405161062893929190611890565b60405180910390a15050505050565b60008054906101000a900473ffffffffffffffffffffffffffffffffffffffff1673ffffffffffffffffffffffffffffffffffffffff163373ffffffffffffffffffffffffffffffffffffffff16146106c5576040517f08c379a00000000000000000000000000000000000000000000000000000000081526004016106bc90611913565b60405180910390fd5b60005b8151811015610756576001600660008484815181106106ea576106e9611933565b5b602002602001015173ffffffffffffffffffffffffffffffffffffffff1673ffffffffffffffffffffffffffffffffffffffff16815260200190815260200160002060006101000a81548160ff021916908315150217905550808061074e906117c5565b9150506106c8565b5050565b60008054906101000a900473ffffffffffffffffffffffffffffffffffffffff1673ffffffffffffffffffffffffffffffffffffffff163373ffffffffffffffffffffffffffffffffffffffff161480610804575060011515600660003373ffffffffffffffffffffffffffffffffffffffff1673ffffffffffffffffffffffffffffffffffffffff16815260200190815260200160002060009054906101000a900460ff161515145b610843576040517f08c379a000000000000000000000000000000000000000000000000000000000815260040161083a906116e6565b60405180910390fd5b8173ffffffffffffffffffffffffffffffffffffffff1663a9059cbb33836040518363ffffffff1660e01b815260040161087e929190611962565b6020604051808303816000875af115801561089d573d6000803e3d6000fd5b505050506040513d601f19601f820116820180604052508101906108c19190611769565b505050565b60008054906101000a900473ffffffffffffffffffffffffffffffffffffffff1673ffffffffffffffffffffffffffffffffffffffff163373ffffffffffffffffffffffffffffffffffffffff1614610954576040517f08c379a000000000000000000000000000000000000000000000000000000000815260040161094b906119d7565b60405180910390fd5b6000600660008373ffffffffffffffffffffffffffffffffffffffff1673ffffffffffffffffffffffffffffffffffffffff16815260200190815260200160002060006101000a81548160ff02191690831515021790555050565b60015481565b60038060000160009054906101000a900473ffffffffffffffffffffffffffffffffffffffff16908060010160009054906101000a900473ffffffffffffffffffffffffffffffffffffffff16905082565b60056020528060005260406000206000915054906101000a900460ff1681565b60008054906101000a900473ffffffffffffffffffffffffffffffffffffffff1673ffffffffffffffffffffffffffffffffffffffff163373ffffffffffffffffffffffffffffffffffffffff1614610ab5576040517f08c379a0000000000000000000000000000000000000000000000000000000008152600401610aac90611913565b60405180910390fd5b6001600660008373ffffffffffffffffffffffffffffffffffffffff1673ffffffffffffffffffffffffffffffffffffffff16815260200190815260200160002060006101000a81548160ff02191690831515021790555050565b610ba88282604051602401610b26929190611a6e565b6040516020818303038152906040527f319af333000000000000000000000000000000000000000000000000000000007bffffffffffffffffffffffffffffffffffffffffffffffffffffffff19166020820180517bffffffffffffffffffffffffffffffffffffffffffffffffffffffff8381831617835250505050610be5565b5050565b610bc48284836003610c0e909392919063ffffffff16565b505050565b610be13082846003610c6e909392919063ffffffff16565b5050565b60008151905060006a636f6e736f6c652e6c6f679050602083016000808483855afa5050505050565b610c6884848484600067ffffffffffffffff811115610c3057610c2f61146a565b5b6040519080825280601f01601f191660200182016040528015610c625781602001600182028036833780820191505090505b50610cce565b50505050565b610cc884848484600067ffffffffffffffff811115610c9057610c8f61146a565b5b6040519080825280601f01601f191660200182016040528015610cc25781602001600182028036833780820191505090505b50610e88565b50505050565b8460000160009054906101000a900473ffffffffffffffffffffffffffffffffffffffff1673ffffffffffffffffffffffffffffffffffffffff166339255d5b8660010160009054906101000a900473ffffffffffffffffffffffffffffffffffffffff168760010160009054906101000a900473ffffffffffffffffffffffffffffffffffffffff1673ffffffffffffffffffffffffffffffffffffffff166362fc305e878988600067ffffffffffffffff811115610d9157610d9061146a565b5b6040519080825280601f01601f191660200182016040528015610dc35781602001600182028036833780820191505090505b50604051602401610dd79493929190611b30565b604051602081830303815290604052915060e01b6020820180517bffffffffffffffffffffffffffffffffffffffffffffffffffffffff8381831617835250505050846040518463ffffffff1660e01b8152600401610e3893929190611b7c565b6000604051808303816000875af1158015610e57573d6000803e3d6000fd5b505050506040513d6000823e3d601f19601f82011682018060405250810190610e809190611c67565b505050505050565b8460000160009054906101000a900473ffffffffffffffffffffffffffffffffffffffff1673ffffffffffffffffffffffffffffffffffffffff166339255d5b8660010160009054906101000a900473ffffffffffffffffffffffffffffffffffffffff168760010160009054906101000a900473ffffffffffffffffffffffffffffffffffffffff1673ffffffffffffffffffffffffffffffffffffffff1663b4b333c6868989600067ffffffffffffffff811115610f4b57610f4a61146a565b5b6040519080825280601f01601f191660200182016040528015610f7d5781602001600182028036833780820191505090505b50604051602401610f919493929190611cb0565b604051602081830303815290604052915060e01b6020820180517bffffffffffffffffffffffffffffffffffffffffffffffffffffffff8381831617835250505050846040518463ffffffff1660e01b8152600401610ff293929190611b7c565b6000604051808303816000875af1158015611011573d6000803e3d6000fd5b505050506040513d6000823e3d601f19601f8201168201806040525081019061103a9190611c67565b505050505050565b6000604051905090565b600080fd5b600080fd5b600073ffffffffffffffffffffffffffffffffffffffff82169050919050565b600061108182611056565b9050919050565b600061109382611076565b9050919050565b6110a381611088565b81146110ae57600080fd5b50565b6000813590506110c08161109a565b92915050565b6000819050919050565b6110d9816110c6565b81146110e457600080fd5b50565b6000813590506110f6816110d0565b92915050565b600080604083850312156111135761111261104c565b5b6000611121858286016110b1565b9250506020611132858286016110e7565b9150509250929050565b611145816110c6565b82525050565b6000602082019050611160600083018461113c565b92915050565b6000819050919050565b61117981611166565b811461118457600080fd5b50565b60008135905061119681611170565b92915050565b600080fd5b6000819050826020600802820111156111bd576111bc61119c565b5b92915050565b60006111ce82611076565b9050919050565b6111de816111c3565b81146111e957600080fd5b50565b6000813590506111fb816111d5565b92915050565b60008060008060008060006101c0888a0312156112215761122061104c565b5b600061122f8a828b016110e7565b97505060206112408a828b01611187565b96505060406112518a828b016110e7565b95505060606112628a828b016110e7565b94505060806112738a828b016111a1565b9350506101806112858a828b016110e7565b9250506101a06112978a828b016111ec565b91505092959891949750929550565b6000819050919050565b60006112cb6112c66112c184611056565b6112a6565b611056565b9050919050565b60006112dd826112b0565b9050919050565b60006112ef826112d2565b9050919050565b6112ff816112e4565b82525050565b600060208201905061131a60008301846112f6565b92915050565b61132981611076565b82525050565b60006020820190506113446000830184611320565b92915050565b61135381611076565b811461135e57600080fd5b50565b6000813590506113708161134a565b92915050565b60006020828403121561138c5761138b61104c565b5b600061139a84828501611361565b91505092915050565b60008115159050919050565b6113b8816113a3565b82525050565b60006020820190506113d360008301846113af565b92915050565b600080600080600060a086880312156113f5576113f461104c565b5b6000611403888289016110e7565b9550506020611414888289016111ec565b945050604061142588828901611361565b9350506060611436888289016110e7565b9250506080611447888289016110e7565b9150509295509295909350565b600080fd5b6000601f19601f8301169050919050565b7f4e487b7100000000000000000000000000000000000000000000000000000000600052604160045260246000fd5b6114a282611459565b810181811067ffffffffffffffff821117156114c1576114c061146a565b5b80604052505050565b60006114d4611042565b90506114e08282611499565b919050565b600067ffffffffffffffff821115611500576114ff61146a565b5b602082029050602081019050919050565b600061152461151f846114e5565b6114ca565b905080838252602082019050602084028301858111156115475761154661119c565b5b835b81811015611570578061155c8882611361565b845260208401935050602081019050611549565b5050509392505050565b600082601f83011261158f5761158e611454565b5b813561159f848260208601611511565b91505092915050565b6000602082840312156115be576115bd61104c565b5b600082013567ffffffffffffffff8111156115dc576115db611051565b5b6115e88482850161157a565b91505092915050565b60006115fc826112d2565b9050919050565b61160c816115f1565b82525050565b600061161d826112d2565b9050919050565b61162d81611612565b82525050565b60006040820190506116486000830185611603565b6116556020830184611624565b9392505050565b6000602082840312156116725761167161104c565b5b6000611680848285016110e7565b91505092915050565b600082825260208201905092915050565b7f6d75737420626520617574686f72697a65640000000000000000000000000000600082015250565b60006116d0601283611689565b91506116db8261169a565b602082019050919050565b600060208201905081810360008301526116ff816116c3565b9050919050565b600060608201905061171b6000830186611320565b6117286020830185611320565b611735604083018461113c565b949350505050565b611746816113a3565b811461175157600080fd5b50565b6000815190506117638161173d565b92915050565b60006020828403121561177f5761177e61104c565b5b600061178d84828501611754565b91505092915050565b7f4e487b7100000000000000000000000000000000000000000000000000000000600052601160045260246000fd5b60006117d0826110c6565b91507fffffffffffffffffffffffffffffffffffffffffffffffffffffffffffffffff820361180257611801611796565b5b600182019050919050565b61181681611166565b82525050565b82818337600083830152505050565b611838610100838361181c565b5050565b600061018082019050611852600083018861113c565b61185f602083018761180d565b61186c604083018661113c565b611879606083018561113c565b611886608083018461182b565b9695505050505050565b60006060820190506118a5600083018661113c565b6118b2602083018561113c565b6118bf604083018461113c565b949350505050565b7f6f6e6c79206f776e65722063616e20616464206163636f756e74730000000000600082015250565b60006118fd601b83611689565b9150611908826118c7565b602082019050919050565b6000602082019050818103600083015261192c816118f0565b9050919050565b7f4e487b7100000000000000000000000000000000000000000000000000000000600052603260045260246000fd5b60006040820190506119776000830185611320565b611984602083018461113c565b9392505050565b7f6f6e6c79206f776e65722063616e2072656d6f7665206163636f756e74730000600082015250565b60006119c1601e83611689565b91506119cc8261198b565b602082019050919050565b600060208201905081810360008301526119f0816119b4565b9050919050565b600081519050919050565b60005b83811015611a20578082015181840152602081019050611a05565b83811115611a2f576000848401525b50505050565b6000611a40826119f7565b611a4a8185611689565b9350611a5a818560208601611a02565b611a6381611459565b840191505092915050565b60006040820190508181036000830152611a888185611a35565b9050611a976020830184611320565b9392505050565b6000611aa9826112d2565b9050919050565b611ab981611a9e565b82525050565b600081600b0b9050919050565b611ad581611abf565b82525050565b600081519050919050565b600082825260208201905092915050565b6000611b0282611adb565b611b0c8185611ae6565b9350611b1c818560208601611a02565b611b2581611459565b840191505092915050565b6000608082019050611b456000830187611ab0565b611b526020830186611320565b611b5f6040830185611acc565b8181036060830152611b718184611af7565b905095945050505050565b6000606082019050611b916000830186611624565b8181036020830152611ba38185611af7565b90508181036040830152611bb78184611af7565b9050949350505050565b600080fd5b600067ffffffffffffffff821115611be157611be061146a565b5b611bea82611459565b9050602081019050919050565b6000611c0a611c0584611bc6565b6114ca565b905082815260208101848484011115611c2657611c25611bc1565b5b611c31848285611a02565b509392505050565b600082601f830112611c4e57611c4d611454565b5b8151611c5e848260208601611bf7565b91505092915050565b600060208284031215611c7d57611c7c61104c565b5b600082015167ffffffffffffffff811115611c9b57611c9a611051565b5b611ca784828501611c39565b91505092915050565b6000608082019050611cc56000830187611ab0565b611cd26020830186611320565b611cdf6040830185611320565b8181036060830152611cf18184611af7565b90509594505050505056fea26469706673582212204d737ac31fb77407f323908b1aad52d73e1c0b518177d0bb5cafe8076d8b908564736f6c634300080d00334465706c6f79696e672061204d6f6e657920526f757465722077697468206f776e65723a",
  "linkReferences": {},
  "deployedLinkReferences": {}
}